{
  "contractName": "CrowdFundingProject",
  "abi": [
    {
      "anonymous": false,
      "inputs": [
        {
          "indexed": false,
          "internalType": "uint256",
          "name": "projectId",
          "type": "uint256"
        },
        {
          "indexed": false,
          "internalType": "address",
          "name": "contributor",
          "type": "address"
        },
        {
          "indexed": false,
          "internalType": "uint256",
          "name": "amount",
          "type": "uint256"
        }
      ],
      "name": "Funded",
      "type": "event"
    },
    {
      "anonymous": false,
      "inputs": [
        {
          "indexed": false,
          "internalType": "uint256",
          "name": "projectId",
          "type": "uint256"
        },
        {
          "indexed": false,
          "internalType": "bool",
          "name": "isFunded",
          "type": "bool"
        }
      ],
      "name": "ProjectClosed",
      "type": "event"
    },
    {
      "anonymous": false,
      "inputs": [
        {
          "indexed": false,
          "internalType": "uint256",
          "name": "projectId",
          "type": "uint256"
        },
        {
          "indexed": false,
          "internalType": "string",
          "name": "name",
          "type": "string"
        },
        {
          "indexed": false,
          "internalType": "string",
          "name": "category",
          "type": "string"
        },
        {
          "indexed": false,
          "internalType": "string",
          "name": "description",
          "type": "string"
        },
        {
          "indexed": false,
          "internalType": "string",
          "name": "imageUrl",
          "type": "string"
        },
        {
          "indexed": false,
          "internalType": "address",
          "name": "owner",
          "type": "address"
        },
        {
          "indexed": false,
          "internalType": "uint256",
          "name": "goal",
          "type": "uint256"
        },
        {
          "indexed": false,
          "internalType": "uint256",
          "name": "deadline",
          "type": "uint256"
        }
      ],
      "name": "ProjectCreated",
      "type": "event"
    },
    {
      "inputs": [
        {
          "internalType": "uint256",
          "name": "",
          "type": "uint256"
        },
        {
          "internalType": "address",
          "name": "",
          "type": "address"
        }
      ],
      "name": "contributions",
      "outputs": [
        {
          "internalType": "uint256",
          "name": "",
          "type": "uint256"
        }
      ],
      "stateMutability": "view",
      "type": "function",
      "constant": true
    },
    {
      "inputs": [
        {
          "internalType": "uint256",
          "name": "",
          "type": "uint256"
        }
      ],
      "name": "projects",
      "outputs": [
        {
          "internalType": "string",
          "name": "name",
          "type": "string"
        },
        {
          "internalType": "string",
          "name": "category",
          "type": "string"
        },
        {
          "internalType": "string",
          "name": "description",
          "type": "string"
        },
        {
          "internalType": "string",
          "name": "imageUrl",
          "type": "string"
        },
        {
          "internalType": "address payable",
          "name": "owner",
          "type": "address"
        },
        {
          "internalType": "uint256",
          "name": "goal",
          "type": "uint256"
        },
        {
          "internalType": "uint256",
          "name": "amountRaised",
          "type": "uint256"
        },
        {
          "internalType": "uint256",
          "name": "deadline",
          "type": "uint256"
        },
        {
          "internalType": "bool",
          "name": "isFunded",
          "type": "bool"
        },
        {
          "internalType": "bool",
          "name": "isClosed",
          "type": "bool"
        }
      ],
      "stateMutability": "view",
      "type": "function",
      "constant": true
    },
    {
      "inputs": [
        {
          "internalType": "string",
          "name": "_name",
          "type": "string"
        },
        {
          "internalType": "string",
          "name": "_category",
          "type": "string"
        },
        {
          "internalType": "string",
          "name": "_description",
          "type": "string"
        },
        {
          "internalType": "string",
          "name": "_imageUrl",
          "type": "string"
        },
        {
          "internalType": "uint256",
          "name": "_goal",
          "type": "uint256"
        },
        {
          "internalType": "uint256",
          "name": "_durationInDays",
          "type": "uint256"
        }
      ],
      "name": "createProject",
      "outputs": [],
      "stateMutability": "nonpayable",
      "type": "function"
    },
    {
      "inputs": [
        {
          "internalType": "uint256",
          "name": "_projectId",
          "type": "uint256"
        }
      ],
      "name": "fundProject",
      "outputs": [],
      "stateMutability": "payable",
      "type": "function",
      "payable": true
    },
    {
      "inputs": [
        {
          "internalType": "uint256",
          "name": "_projectId",
          "type": "uint256"
        }
      ],
      "name": "withdrawFunds",
      "outputs": [],
      "stateMutability": "nonpayable",
      "type": "function"
    },
    {
      "inputs": [
        {
          "internalType": "uint256",
          "name": "_projectId",
          "type": "uint256"
        }
      ],
      "name": "getProjectDetails",
      "outputs": [
        {
          "internalType": "string",
          "name": "",
          "type": "string"
        },
        {
          "internalType": "string",
          "name": "",
          "type": "string"
        },
        {
          "internalType": "string",
          "name": "",
          "type": "string"
        },
        {
          "internalType": "string",
          "name": "",
          "type": "string"
        },
        {
          "internalType": "address",
          "name": "",
          "type": "address"
        },
        {
          "internalType": "uint256",
          "name": "",
          "type": "uint256"
        },
        {
          "internalType": "uint256",
          "name": "",
          "type": "uint256"
        },
        {
          "internalType": "uint256",
          "name": "",
          "type": "uint256"
        },
        {
          "internalType": "bool",
          "name": "",
          "type": "bool"
        },
        {
          "internalType": "bool",
          "name": "",
          "type": "bool"
        }
      ],
      "stateMutability": "view",
      "type": "function",
      "constant": true
    },
    {
      "inputs": [
        {
          "internalType": "uint256",
          "name": "_projectId",
          "type": "uint256"
        },
        {
          "internalType": "address",
          "name": "_contributor",
          "type": "address"
        }
      ],
      "name": "getContribution",
      "outputs": [
        {
          "internalType": "uint256",
          "name": "",
          "type": "uint256"
        }
      ],
      "stateMutability": "view",
      "type": "function",
      "constant": true
    },
    {
      "inputs": [],
      "name": "getProjectsCount",
      "outputs": [
        {
          "internalType": "uint256",
          "name": "",
          "type": "uint256"
        }
      ],
      "stateMutability": "view",
      "type": "function",
      "constant": true
    },
    {
      "inputs": [],
      "name": "getAllProjects",
      "outputs": [
        {
          "components": [
            {
              "internalType": "string",
              "name": "name",
              "type": "string"
            },
            {
              "internalType": "string",
              "name": "category",
              "type": "string"
            },
            {
              "internalType": "string",
              "name": "description",
              "type": "string"
            },
            {
              "internalType": "string",
              "name": "imageUrl",
              "type": "string"
            },
            {
              "internalType": "address payable",
              "name": "owner",
              "type": "address"
            },
            {
              "internalType": "uint256",
              "name": "goal",
              "type": "uint256"
            },
            {
              "internalType": "uint256",
              "name": "amountRaised",
              "type": "uint256"
            },
            {
              "internalType": "uint256",
              "name": "deadline",
              "type": "uint256"
            },
            {
              "internalType": "bool",
              "name": "isFunded",
              "type": "bool"
            },
            {
              "internalType": "bool",
              "name": "isClosed",
              "type": "bool"
            }
          ],
          "internalType": "struct CrowdFundingProject.Project[]",
          "name": "",
          "type": "tuple[]"
        }
      ],
      "stateMutability": "view",
      "type": "function",
      "constant": true
    }
  ],
  "bytecode": "0x608060405234801561001057600080fd5b5061249d806100206000396000f3fe6080604052600436106100865760003560e01c80635f8439e3116100595780635f8439e3146101605780636c563abe146101a657806380d03829146101c2578063e081dbf9146101ed578063e4a8f18b1461022a57610086565b8063012865a41461008b578063107046bd146100b4578063155dd5ee146100fa5780633d891f5914610123575b600080fd5b34801561009757600080fd5b506100b260048036038101906100ad91906116bc565b610255565b005b3480156100c057600080fd5b506100db60048036038101906100d691906117a5565b610503565b6040516100f19a99989796959493929190611d7d565b60405180910390f35b34801561010657600080fd5b50610121600480360381019061011c91906117a5565b6107c1565b005b34801561012f57600080fd5b5061014a600480360381019061014591906117ce565b610a55565b604051610157919061200d565b60405180910390f35b34801561016c57600080fd5b50610187600480360381019061018291906117a5565b610a7a565b60405161019d9a99989796959493929190611e35565b60405180910390f35b6101c060048036038101906101bb91906117a5565b610dd7565b005b3480156101ce57600080fd5b506101d7611086565b6040516101e49190611d5b565b60405180910390f35b3480156101f957600080fd5b50610214600480360381019061020f91906117ce565b6113d8565b604051610221919061200d565b60405180910390f35b34801561023657600080fd5b5061023f61147c565b60405161024c919061200d565b60405180910390f35b60008211610298576040517f08c379a000000000000000000000000000000000000000000000000000000000815260040161028f90611f4d565b60405180910390fd5b600081116102db576040517f08c379a00000000000000000000000000000000000000000000000000000000081526004016102d290611f6d565b60405180910390fd5b600062015180826102ec919061223f565b426102f791906121e9565b905060006040518061014001604052808981526020018881526020018781526020018681526020013373ffffffffffffffffffffffffffffffffffffffff1681526020018581526020016000815260200183815260200160001515815260200160001515815250908060018154018082558091505060019003906000526020600020906009020160009091909190915060008201518160000190805190602001906103a3929190611587565b5060208201518160010190805190602001906103c0929190611587565b5060408201518160020190805190602001906103dd929190611587565b5060608201518160030190805190602001906103fa929190611587565b5060808201518160040160006101000a81548173ffffffffffffffffffffffffffffffffffffffff021916908373ffffffffffffffffffffffffffffffffffffffff16021790555060a0820151816005015560c0820151816006015560e082015181600701556101008201518160080160006101000a81548160ff0219169083151502179055506101208201518160080160016101000a81548160ff02191690831515021790555050507f2604464a50fb55287a2c07d8832d33393b50823b5644c75e6c32736d1b662fdf60016000805490506104d79190612299565b888888883389886040516104f2989796959493929190612088565b60405180910390a150505050505050565b6000818154811061051357600080fd5b906000526020600020906009020160009150905080600001805461053690612369565b80601f016020809104026020016040519081016040528092919081815260200182805461056290612369565b80156105af5780601f10610584576101008083540402835291602001916105af565b820191906000526020600020905b81548152906001019060200180831161059257829003601f168201915b5050505050908060010180546105c490612369565b80601f01602080910402602001604051908101604052809291908181526020018280546105f090612369565b801561063d5780601f106106125761010080835404028352916020019161063d565b820191906000526020600020905b81548152906001019060200180831161062057829003601f168201915b50505050509080600201805461065290612369565b80601f016020809104026020016040519081016040528092919081815260200182805461067e90612369565b80156106cb5780601f106106a0576101008083540402835291602001916106cb565b820191906000526020600020905b8154815290600101906020018083116106ae57829003601f168201915b5050505050908060030180546106e090612369565b80601f016020809104026020016040519081016040528092919081815260200182805461070c90612369565b80156107595780601f1061072e57610100808354040283529160200191610759565b820191906000526020600020905b81548152906001019060200180831161073c57829003601f168201915b5050505050908060040160009054906101000a900473ffffffffffffffffffffffffffffffffffffffff16908060050154908060060154908060070154908060080160009054906101000a900460ff16908060080160019054906101000a900460ff1690508a565b80600081815481106107fc577f4e487b7100000000000000000000000000000000000000000000000000000000600052603260045260246000fd5b906000526020600020906009020160040160009054906101000a900473ffffffffffffffffffffffffffffffffffffffff1673ffffffffffffffffffffffffffffffffffffffff163373ffffffffffffffffffffffffffffffffffffffff161461089b576040517f08c379a000000000000000000000000000000000000000000000000000000000815260040161089290611f8d565b60405180910390fd5b8160008054905081106108e3576040517f08c379a00000000000000000000000000000000000000000000000000000000081526004016108da90611fed565b60405180910390fd5b600080848154811061091e577f4e487b7100000000000000000000000000000000000000000000000000000000600052603260045260246000fd5b906000526020600020906009020190508060080160009054906101000a900460ff1661097f576040517f08c379a000000000000000000000000000000000000000000000000000000000815260040161097690611eed565b60405180910390fd5b8060080160019054906101000a900460ff166109d0576040517f08c379a00000000000000000000000000000000000000000000000000000000081526004016109c790611f2d565b60405180910390fd5b600081600601549050600082600601819055508160040160009054906101000a900473ffffffffffffffffffffffffffffffffffffffff1673ffffffffffffffffffffffffffffffffffffffff166108fc829081150290604051600060405180830381858888f19350505050158015610a4d573d6000803e3d6000fd5b505050505050565b6001602052816000526040600020602052806000526040600020600091509150505481565b6060806060806000806000806000808a6000805490508110610ad1576040517f08c379a0000000000000000000000000000000000000000000000000000000008152600401610ac890611fed565b60405180910390fd5b6000808d81548110610b0c577f4e487b7100000000000000000000000000000000000000000000000000000000600052603260045260246000fd5b90600052602060002090600902019050806000018160010182600201836003018460040160009054906101000a900473ffffffffffffffffffffffffffffffffffffffff168560050154866006015487600701548860080160009054906101000a900460ff168960080160019054906101000a900460ff16898054610b9090612369565b80601f0160208091040260200160405190810160405280929190818152602001828054610bbc90612369565b8015610c095780601f10610bde57610100808354040283529160200191610c09565b820191906000526020600020905b815481529060010190602001808311610bec57829003601f168201915b50505050509950888054610c1c90612369565b80601f0160208091040260200160405190810160405280929190818152602001828054610c4890612369565b8015610c955780601f10610c6a57610100808354040283529160200191610c95565b820191906000526020600020905b815481529060010190602001808311610c7857829003601f168201915b50505050509850878054610ca890612369565b80601f0160208091040260200160405190810160405280929190818152602001828054610cd490612369565b8015610d215780601f10610cf657610100808354040283529160200191610d21565b820191906000526020600020905b815481529060010190602001808311610d0457829003601f168201915b50505050509750868054610d3490612369565b80601f0160208091040260200160405190810160405280929190818152602001828054610d6090612369565b8015610dad5780601f10610d8257610100808354040283529160200191610dad565b820191906000526020600020905b815481529060010190602001808311610d9057829003601f168201915b505050505096509b509b509b509b509b509b509b509b509b509b5050509193959799509193959799565b806000805490508110610e1f576040517f08c379a0000000000000000000000000000000000000000000000000000000008152600401610e1690611fed565b60405180910390fd5b8160008181548110610e5a577f4e487b7100000000000000000000000000000000000000000000000000000000600052603260045260246000fd5b906000526020600020906009020160080160019054906101000a900460ff1615610eb9576040517f08c379a0000000000000000000000000000000000000000000000000000000008152600401610eb090611fcd565b60405180910390fd5b6000808481548110610ef4577f4e487b7100000000000000000000000000000000000000000000000000000000600052603260045260246000fd5b9060005260206000209060090201905060003411610f47576040517f08c379a0000000000000000000000000000000000000000000000000000000008152600401610f3e90611fad565b60405180910390fd5b80600701544210610f8d576040517f08c379a0000000000000000000000000000000000000000000000000000000008152600401610f8490611f0d565b60405180910390fd5b34816006016000828254610fa191906121e9565b92505081905550346001600086815260200190815260200160002060003373ffffffffffffffffffffffffffffffffffffffff1673ffffffffffffffffffffffffffffffffffffffff168152602001908152602001600020600082825461100891906121e9565b925050819055507f38c48552690c96ec2872092ac1db6c19fb59f5a8c5b49bbf41ed4886d0ca692684333460405161104293929190612028565b60405180910390a180600501548160060154106110805760018160080160006101000a81548160ff02191690831515021790555061107f84611488565b5b50505050565b60606000805480602002602001604051908101604052809291908181526020016000905b828210156113cf5783829060005260206000209060090201604051806101400160405290816000820180546110de90612369565b80601f016020809104026020016040519081016040528092919081815260200182805461110a90612369565b80156111575780601f1061112c57610100808354040283529160200191611157565b820191906000526020600020905b81548152906001019060200180831161113a57829003601f168201915b5050505050815260200160018201805461117090612369565b80601f016020809104026020016040519081016040528092919081815260200182805461119c90612369565b80156111e95780601f106111be576101008083540402835291602001916111e9565b820191906000526020600020905b8154815290600101906020018083116111cc57829003601f168201915b5050505050815260200160028201805461120290612369565b80601f016020809104026020016040519081016040528092919081815260200182805461122e90612369565b801561127b5780601f106112505761010080835404028352916020019161127b565b820191906000526020600020905b81548152906001019060200180831161125e57829003601f168201915b5050505050815260200160038201805461129490612369565b80601f01602080910402602001604051908101604052809291908181526020018280546112c090612369565b801561130d5780601f106112e25761010080835404028352916020019161130d565b820191906000526020600020905b8154815290600101906020018083116112f057829003601f168201915b505050505081526020016004820160009054906101000a900473ffffffffffffffffffffffffffffffffffffffff1673ffffffffffffffffffffffffffffffffffffffff1673ffffffffffffffffffffffffffffffffffffffff1681526020016005820154815260200160068201548152602001600782015481526020016008820160009054906101000a900460ff161515151581526020016008820160019054906101000a900460ff161515151581525050815260200190600101906110aa565b50505050905090565b6000826000805490508110611422576040517f08c379a000000000000000000000000000000000000000000000000000000000815260040161141990611fed565b60405180910390fd5b6001600085815260200190815260200160002060008473ffffffffffffffffffffffffffffffffffffffff1673ffffffffffffffffffffffffffffffffffffffff1681526020019081526020016000205491505092915050565b60008080549050905090565b8060008054905081106114d0576040517f08c379a00000000000000000000000000000000000000000000000000000000081526004016114c790611fed565b60405180910390fd5b600080838154811061150b577f4e487b7100000000000000000000000000000000000000000000000000000000600052603260045260246000fd5b9060005260206000209060090201905060018160080160016101000a81548160ff0219169083151502179055507f5e4cce7b51d0127810e5b8c9ba3fa985d15d3fa9282fc8aecab20c8dde2c6aa0838260080160009054906101000a900460ff1660405161157a92919061205f565b60405180910390a1505050565b82805461159390612369565b90600052602060002090601f0160209004810192826115b557600085556115fc565b82601f106115ce57805160ff19168380011785556115fc565b828001600101855582156115fc579182015b828111156115fb5782518255916020019190600101906115e0565b5b509050611609919061160d565b5090565b5b8082111561162657600081600090555060010161160e565b5090565b600061163d61163884612153565b612122565b90508281526020810184848401111561165557600080fd5b611660848285612327565b509392505050565b60008135905061167781612439565b92915050565b600082601f83011261168e57600080fd5b813561169e84826020860161162a565b91505092915050565b6000813590506116b681612450565b92915050565b60008060008060008060c087890312156116d557600080fd5b600087013567ffffffffffffffff8111156116ef57600080fd5b6116fb89828a0161167d565b965050602087013567ffffffffffffffff81111561171857600080fd5b61172489828a0161167d565b955050604087013567ffffffffffffffff81111561174157600080fd5b61174d89828a0161167d565b945050606087013567ffffffffffffffff81111561176a57600080fd5b61177689828a0161167d565b935050608061178789828a016116a7565b92505060a061179889828a016116a7565b9150509295509295509295565b6000602082840312156117b757600080fd5b60006117c5848285016116a7565b91505092915050565b600080604083850312156117e157600080fd5b60006117ef858286016116a7565b925050602061180085828601611668565b9150509250929050565b60006118168383611c4e565b905092915050565b611827816122df565b82525050565b611836816122df565b82525050565b611845816122cd565b82525050565b600061185682612193565b61186081856121b6565b93508360208202850161187285612183565b8060005b858110156118ae578484038952815161188f858261180a565b945061189a836121a9565b925060208a01995050600181019050611876565b50829750879550505050505092915050565b6118c9816122f1565b82525050565b6118d8816122f1565b82525050565b60006118e98261219e565b6118f381856121c7565b9350611903818560208601612336565b61190c81612428565b840191505092915050565b60006119228261219e565b61192c81856121d8565b935061193c818560208601612336565b61194581612428565b840191505092915050565b600061195d6019836121d8565b91507f50726f6a656374206973206e6f742066756e64656420796574000000000000006000830152602082019050919050565b600061199d6030836121d8565b91507f54686520646561646c696e6520666f722066756e64696e67207468697320707260008301527f6f6a6563742068617320706173736564000000000000000000000000000000006020830152604082019050919050565b6000611a036028836121d8565b91507f50726f6a656374206d75737420626520636c6f73656420746f2077697468647260008301527f61772066756e64730000000000000000000000000000000000000000000000006020830152604082019050919050565b6000611a69601e836121d8565b91507f476f616c206d7573742062652067726561746572207468616e207a65726f00006000830152602082019050919050565b6000611aa96022836121d8565b91507f4475726174696f6e206d7573742062652067726561746572207468616e207a6560008301527f726f0000000000000000000000000000000000000000000000000000000000006020830152604082019050919050565b6000611b0f6029836121d8565b91507f4f6e6c792070726f6a656374206f776e65722063616e2063616c6c207468697360008301527f2066756e6374696f6e00000000000000000000000000000000000000000000006020830152604082019050919050565b6000611b756026836121d8565b91507f436f6e747269627574696f6e206d75737420626520677265617465722074686160008301527f6e207a65726f00000000000000000000000000000000000000000000000000006020830152604082019050919050565b6000611bdb6019836121d8565b91507f50726f6a65637420697320616c726561647920636c6f736564000000000000006000830152602082019050919050565b6000611c1b6016836121d8565b91507f50726f6a65637420646f6573206e6f74206578697374000000000000000000006000830152602082019050919050565b6000610140830160008301518482036000860152611c6c82826118de565b91505060208301518482036020860152611c8682826118de565b91505060408301518482036040860152611ca082826118de565b91505060608301518482036060860152611cba82826118de565b9150506080830151611ccf608086018261181e565b5060a0830151611ce260a0860182611d3d565b5060c0830151611cf560c0860182611d3d565b5060e0830151611d0860e0860182611d3d565b50610100830151611d1d6101008601826118c0565b50610120830151611d326101208601826118c0565b508091505092915050565b611d468161231d565b82525050565b611d558161231d565b82525050565b60006020820190508181036000830152611d75818461184b565b905092915050565b6000610140820190508181036000830152611d98818d611917565b90508181036020830152611dac818c611917565b90508181036040830152611dc0818b611917565b90508181036060830152611dd4818a611917565b9050611de3608083018961182d565b611df060a0830188611d4c565b611dfd60c0830187611d4c565b611e0a60e0830186611d4c565b611e186101008301856118cf565b611e266101208301846118cf565b9b9a5050505050505050505050565b6000610140820190508181036000830152611e50818d611917565b90508181036020830152611e64818c611917565b90508181036040830152611e78818b611917565b90508181036060830152611e8c818a611917565b9050611e9b608083018961183c565b611ea860a0830188611d4c565b611eb560c0830187611d4c565b611ec260e0830186611d4c565b611ed06101008301856118cf565b611ede6101208301846118cf565b9b9a5050505050505050505050565b60006020820190508181036000830152611f0681611950565b9050919050565b60006020820190508181036000830152611f2681611990565b9050919050565b60006020820190508181036000830152611f46816119f6565b9050919050565b60006020820190508181036000830152611f6681611a5c565b9050919050565b60006020820190508181036000830152611f8681611a9c565b9050919050565b60006020820190508181036000830152611fa681611b02565b9050919050565b60006020820190508181036000830152611fc681611b68565b9050919050565b60006020820190508181036000830152611fe681611bce565b9050919050565b6000602082019050818103600083015261200681611c0e565b9050919050565b60006020820190506120226000830184611d4c565b92915050565b600060608201905061203d6000830186611d4c565b61204a602083018561183c565b6120576040830184611d4c565b949350505050565b60006040820190506120746000830185611d4c565b61208160208301846118cf565b9392505050565b60006101008201905061209e600083018b611d4c565b81810360208301526120b0818a611917565b905081810360408301526120c48189611917565b905081810360608301526120d88188611917565b905081810360808301526120ec8187611917565b90506120fb60a083018661183c565b61210860c0830185611d4c565b61211560e0830184611d4c565b9998505050505050505050565b6000604051905081810181811067ffffffffffffffff82111715612149576121486123f9565b5b8060405250919050565b600067ffffffffffffffff82111561216e5761216d6123f9565b5b601f19601f8301169050602081019050919050565b6000819050602082019050919050565b600081519050919050565b600081519050919050565b6000602082019050919050565b600082825260208201905092915050565b600082825260208201905092915050565b600082825260208201905092915050565b60006121f48261231d565b91506121ff8361231d565b9250827fffffffffffffffffffffffffffffffffffffffffffffffffffffffffffffffff038211156122345761223361239b565b5b828201905092915050565b600061224a8261231d565b91506122558361231d565b9250817fffffffffffffffffffffffffffffffffffffffffffffffffffffffffffffffff048311821515161561228e5761228d61239b565b5b828202905092915050565b60006122a48261231d565b91506122af8361231d565b9250828210156122c2576122c161239b565b5b828203905092915050565b60006122d8826122fd565b9050919050565b60006122ea826122fd565b9050919050565b60008115159050919050565b600073ffffffffffffffffffffffffffffffffffffffff82169050919050565b6000819050919050565b82818337600083830152505050565b60005b83811015612354578082015181840152602081019050612339565b83811115612363576000848401525b50505050565b6000600282049050600182168061238157607f821691505b60208210811415612395576123946123ca565b5b50919050565b7f4e487b7100000000000000000000000000000000000000000000000000000000600052601160045260246000fd5b7f4e487b7100000000000000000000000000000000000000000000000000000000600052602260045260246000fd5b7f4e487b7100000000000000000000000000000000000000000000000000000000600052604160045260246000fd5b6000601f19601f8301169050919050565b612442816122cd565b811461244d57600080fd5b50565b6124598161231d565b811461246457600080fd5b5056fea26469706673582212205d5dadc35efb41aaf2f2ea6a01d0e0b2f360ec374615ba16d8c6dd8ab935d76364736f6c63430008000033",
  "immutableReferences": {},
  "source": "// SPDX-License-Identifier: MIT\npragma solidity ^0.8.0;\n\ncontract CrowdFundingProject {\n    struct Project {\n        string name;\n        string category;\n        string description;\n        string imageUrl;\n        address payable owner;\n        uint256 goal;\n        uint256 amountRaised;\n        uint256 deadline;\n        bool isFunded;\n        bool isClosed;\n    }\n\n    Project[] public projects;\n    mapping(uint256 => mapping(address => uint256)) public contributions;\n\n    event ProjectCreated(\n        uint256 projectId,\n        string name,\n        string category,\n        string description,\n        string imageUrl,\n        address owner,\n        uint256 goal,\n        uint256 deadline\n    );\n\n    event Funded(uint256 projectId, address contributor, uint256 amount);\n    event ProjectClosed(uint256 projectId, bool isFunded);\n\n    modifier onlyOwner(uint256 _projectId) {\n        require(msg.sender == projects[_projectId].owner, \"Only project owner can call this function\");\n        _;\n    }\n\n    modifier projectExists(uint256 _projectId) {\n        require(_projectId < projects.length, \"Project does not exist\");\n        _;\n    }\n\n    modifier notClosed(uint256 _projectId) {\n        require(!projects[_projectId].isClosed, \"Project is already closed\");\n        _;\n    }\n\n    function createProject(\n        string memory _name,\n        string memory _category,\n        string memory _description,\n        string memory _imageUrl,\n        uint256 _goal,\n        uint256 _durationInDays\n    ) public {\n        require(_goal > 0, \"Goal must be greater than zero\");\n        require(_durationInDays > 0, \"Duration must be greater than zero\");\n\n        uint256 deadline = block.timestamp + (_durationInDays * 1 days);\n        \n        projects.push(Project({\n            name: _name,\n            category: _category,\n            description: _description,\n            imageUrl: _imageUrl,\n            owner: payable(msg.sender),\n            goal: _goal,\n            amountRaised: 0,\n            deadline: deadline,\n            isFunded: false,\n            isClosed: false\n        }));\n\n        emit ProjectCreated(projects.length - 1, _name, _category, _description, _imageUrl, msg.sender, _goal, deadline);\n    }\n\n    function fundProject(uint256 _projectId) public payable projectExists(_projectId) notClosed(_projectId) {\n        Project storage project = projects[_projectId];\n\n        require(msg.value > 0, \"Contribution must be greater than zero\");\n        require(block.timestamp < project.deadline, \"The deadline for funding this project has passed\");\n\n        project.amountRaised += msg.value;\n        contributions[_projectId][msg.sender] += msg.value;\n\n        emit Funded(_projectId, msg.sender, msg.value);\n\n        if (project.amountRaised >= project.goal) {\n            project.isFunded = true;\n            closeProject(_projectId);\n        }\n    }\n\n    function closeProject(uint256 _projectId) internal projectExists(_projectId) {\n        Project storage project = projects[_projectId];\n        project.isClosed = true;\n        emit ProjectClosed(_projectId, project.isFunded);\n    }\n\n    function withdrawFunds(uint256 _projectId) public onlyOwner(_projectId) projectExists(_projectId) {\n        Project storage project = projects[_projectId];\n        require(project.isFunded, \"Project is not funded yet\");\n        require(project.isClosed, \"Project must be closed to withdraw funds\");\n\n        uint256 amount = project.amountRaised;\n        project.amountRaised = 0;\n        project.owner.transfer(amount);\n    }\n\n    function getProjectDetails(uint256 _projectId) public view projectExists(_projectId) returns (\n        string memory, string memory, string memory, string memory, address, uint256, uint256, uint256, bool, bool\n    ) {\n        Project storage project = projects[_projectId];\n        return (\n            project.name,\n            project.category,\n            project.description,\n            project.imageUrl,\n            project.owner,\n            project.goal,\n            project.amountRaised,\n            project.deadline,\n            project.isFunded,\n            project.isClosed\n        );\n    }\n\n    function getContribution(uint256 _projectId, address _contributor) public view projectExists(_projectId) returns (uint256) {\n        return contributions[_projectId][_contributor];\n    }\n\n    function getProjectsCount() public view returns (uint256) {\n        return projects.length;\n    }\n\n    function getAllProjects() public view returns (Project[] memory) {\n        return projects;\n    }\n}",
  "sourcePath": "/Users/mac/Desktop/programs/hackathon/crowdcraft_node/contracts/CrowdFundingProject.sol",
  "compiler": {
    "name": "solc",
    "version": "0.8.0+commit.c7dfd78e.Emscripten.clang"
  },
  "schemaVersion": "3.4.16",
  "updatedAt": "2024-08-31T20:36:27.135Z",
  "networkType": "ethereum",
  "devdoc": {
    "kind": "dev",
    "methods": {},
    "version": 1
  },
  "userdoc": {
    "kind": "user",
    "methods": {},
    "version": 1
  }
}